{
  "contractName": "queryMeta",
  "abi": [
    {
      "constant": true,
      "inputs": [
        {
          "name": "",
          "type": "uint256"
        }
      ],
      "name": "users",
      "outputs": [
        {
          "name": "name",
          "type": "string"
        },
        {
          "name": "id",
          "type": "uint256"
        },
        {
          "name": "roleNum",
          "type": "uint256"
        }
      ],
      "payable": false,
      "stateMutability": "view",
      "type": "function"
    },
    {
      "constant": true,
      "inputs": [],
      "name": "usersCount",
      "outputs": [
        {
          "name": "",
          "type": "uint256"
        }
      ],
      "payable": false,
      "stateMutability": "view",
      "type": "function"
    },
    {
      "constant": true,
      "inputs": [],
      "name": "EMRMetasCount",
      "outputs": [
        {
          "name": "",
          "type": "uint256"
        }
      ],
      "payable": false,
      "stateMutability": "view",
      "type": "function"
    },
    {
      "constant": true,
      "inputs": [
        {
          "name": "",
          "type": "uint256"
        }
      ],
      "name": "EMRMetas",
      "outputs": [
        {
          "name": "owner",
          "type": "uint256"
        },
        {
          "name": "timestamp",
          "type": "string"
        },
        {
          "name": "allowedRole",
          "type": "uint256"
        }
      ],
      "payable": false,
      "stateMutability": "view",
      "type": "function"
    },
    {
      "inputs": [],
      "payable": false,
      "stateMutability": "nonpayable",
      "type": "constructor"
    },
    {
      "anonymous": false,
      "inputs": [
        {
          "indexed": true,
          "name": "_owner",
          "type": "uint256"
        }
      ],
      "name": "updateMetaEvent",
      "type": "event"
    },
    {
      "constant": false,
      "inputs": [
        {
          "name": "_owner",
          "type": "uint256"
        },
        {
          "name": "_timestamp",
          "type": "string"
        },
        {
          "name": "_allowedRole",
          "type": "uint256"
        }
      ],
      "name": "addMetas",
      "outputs": [],
      "payable": false,
      "stateMutability": "nonpayable",
      "type": "function"
    },
    {
      "constant": false,
      "inputs": [
        {
          "name": "_owner",
          "type": "uint256"
        }
      ],
      "name": "updateMetas",
      "outputs": [],
      "payable": false,
      "stateMutability": "nonpayable",
      "type": "function"
    }
  ],
  "bytecode": "0x608060405234801561001057600080fd5b506100636040805190810160405280600581526020017f416c696365000000000000000000000000000000000000000000000000000000815250610378600161015c640100000000026401000000009004565b6100b46040805190810160405280600381526020017f426f6200000000000000000000000000000000000000000000000000000000008152506057600461015c640100000000026401000000009004565b610105607b6040805190810160405280600881526020017f323031383131313800000000000000000000000000000000000000000000000081525060016101d8640100000000026401000000009004565b6101576101c86040805190810160405280600881526020017f323031383131313900000000000000000000000000000000000000000000000081525060046101d8640100000000026401000000009004565b6102f8565b6003600081548092919060010191905055506060604051908101604052808481526020018381526020018281525060026000600354815260200190815260200160002060008201518160000190805190602001906101bb929190610253565b506020820151816001015560408201518160020155905050505050565b600160008154809291906001019190505550606060405190810160405280848152602001838152602001828152506000806001548152602001908152602001600020600082015181600001556020820151816001019080519060200190610240929190610253565b5060408201518160020155905050505050565b828054600181600116156101000203166002900490600052602060002090601f016020900481019282601f1061029457805160ff19168380011785556102c2565b828001600101855582156102c2579182015b828111156102c15782518255916020019190600101906102a6565b5b5090506102cf91906102d3565b5090565b6102f591905b808211156102f15760008160009055506001016102d9565b5090565b90565b61064a806103076000396000f300608060405260043610610078576000357c0100000000000000000000000000000000000000000000000000000000900463ffffffff168063365b98b21461007d5780633e968bdf146101315780636202d746146101ae5780636ba13a82146101db578063f9ea838914610206578063feb6895914610231575b600080fd5b34801561008957600080fd5b506100a8600480360381019080803590602001909291905050506102e5565b6040518080602001848152602001838152602001828103825285818151815260200191508051906020019080838360005b838110156100f45780820151818401526020810190506100d9565b50505050905090810190601f1680156101215780820380516001836020036101000a031916815260200191505b5094505050505060405180910390f35b34801561013d57600080fd5b506101ac60048036038101908080359060200190929190803590602001908201803590602001908080601f0160208091040260200160405190810160405280939291908181526020018383808284378201915050505050509192919290803590602001909291905050506103a7565b005b3480156101ba57600080fd5b506101d960048036038101908080359060200190929190505050610422565b005b3480156101e757600080fd5b506101f06104ab565b6040518082815260200191505060405180910390f35b34801561021257600080fd5b5061021b6104b1565b6040518082815260200191505060405180910390f35b34801561023d57600080fd5b5061025c600480360381019080803590602001909291905050506104b7565b6040518084815260200180602001838152602001828103825284818151815260200191508051906020019080838360005b838110156102a857808201518184015260208101905061028d565b50505050905090810190601f1680156102d55780820380516001836020036101000a031916815260200191505b5094505050505060405180910390f35b6002602052806000526040600020600091509050806000018054600181600116156101000203166002900480601f0160208091040260200160405190810160405280929190818152602001828054600181600116156101000203166002900480156103915780601f1061036657610100808354040283529160200191610391565b820191906000526020600020905b81548152906001019060200180831161037457829003601f168201915b5050505050908060010154908060020154905083565b60016000815480929190600101919050555060606040519081016040528084815260200183815260200182815250600080600154815260200190815260200160002060008201518160000155602082015181600101908051906020019061040f929190610579565b5060408201518160020155905050505050565b6000600190505b6001548111151561047a578160008083815260200190815260200160002060000154141561046d576003600080838152602001908152602001600020600201819055505b8080600101915050610429565b817f4fdc55c4adedf850bc3a09c67ac316fe2a76bb94352f43c0b36d758f14df111560405160405180910390a25050565b60035481565b60015481565b6000602052806000526040600020600091509050806000015490806001018054600181600116156101000203166002900480601f0160208091040260200160405190810160405280929190818152602001828054600181600116156101000203166002900480156105695780601f1061053e57610100808354040283529160200191610569565b820191906000526020600020905b81548152906001019060200180831161054c57829003601f168201915b5050505050908060020154905083565b828054600181600116156101000203166002900490600052602060002090601f016020900481019282601f106105ba57805160ff19168380011785556105e8565b828001600101855582156105e8579182015b828111156105e75782518255916020019190600101906105cc565b5b5090506105f591906105f9565b5090565b61061b91905b808211156106175760008160009055506001016105ff565b5090565b905600a165627a7a72305820d22fcbdf4761caf0e00a8e9fea0216a0273f844c991b62394d8eef7ce043bf590029",
  "source": "pragma solidity  ^0.4.24;\n\ncontract queryMeta {\n\n    //Model metadata of EMR\n    struct EMRMeta {\n        uint owner; //patient ID; public will have getter and setter function automatically\n        string timestamp;\n        uint allowedRole;\n    }\n\n    //Store EMRMetas\n    mapping (uint => EMRMeta) public EMRMetas;\n    //store EMRMetas count\n    uint public EMRMetasCount;\n\n    struct User{\n      string name; //name of doctor or patient\n      uint id;\n      uint roleNum; /*\n                    consider doctor only for the time being:\n                      1 -> doctor\n                      2 -> analyzer\n                      3 -> insurance\n                      4->  patient\n                        */\n    }\n\n    //Store　roles\n    mapping (uint => User) public users;\n    //store EMRMetas count\n    uint public usersCount;\n\n    //update EMRMeta event\n    event updateMetaEvent (\n        uint indexed _owner\n    );\n\n\n    /*\n     * Contructor, will run whenever we deploy the contract to the blockchain\n     * (initialized contract upon migration)\n     * same name as the contract\n    */\n    function queryMeta () public {\n           //initialize users directly\n           //users[0] = User(\"Alice\", 888, 1); //doctor\n           //users[1] = User(\"Bob\", 87, 4); //a patient\n\n           addUser(\"Alice\", 888, 1);//doctor\n           addUser(\"Bob\", 87, 4);//a patient\n\n           //initialize EMRMetas directly\n           //EMRMetas[0] = EMRMeta(123, \"20181118\", 1);\n           //EMRMetas[1] = EMRMeta(456, \"20181119\", 4);\n\n           addMetas(123, \"20181118\", 1);\n           addMetas(456, \"20181119\", 4);\n    }\n\n    //add a new medical metadata\n    function addMetas (uint _owner, string _timestamp, uint _allowedRole) public{\n        //addMetas　string _timestamp can be get automatically later (solidity date)\n\n        //check role to be allowed to addEMRMetas\n        //require(roles[msg.sender] == 1); //only a doctor can addEMRMetas now\n        //here msg.sender is an address, msg.sender to identify the address of who calling this function\n\n        /********************************************************************************/\n        /*******Here we should consider to add \"medical data\" to cloud (dejima)**********/\n        /********************************************************************************/\n\n        EMRMetasCount ++;\n\n        EMRMetas[EMRMetasCount] = EMRMeta(_owner, _timestamp, _allowedRole);\n\n    }\n\n    //add a new person who belongs a role\n    function addUser (string _name, uint _id, uint _roleNum) private\n    {\n      //check the priviledge to add User\n\n      // add users in the cloud\n\n      usersCount ++;\n\n      users[usersCount] = User(_name, _id, _roleNum);\n\n    }\n\n    //update an existing medical metadata, suppose will change the allowedRole\n    function updateMetas (uint _owner) public\n    {\n        //updateMetas　string _timestamp can be get automatically later\n\n        //check role to be allowed to updateEMRMetas\n        //require(roles[msg.sender] == 1); //only a doctor can updateEMRMetas now\n        //here msg.sender is an address, msg.sender to identify the address of who calling this function\n\n        /********************************************************************************/\n        /*******Here we should consider to update \"medical data\" to cloud (dejima)**********/\n        /********************************************************************************/\n\n        for (uint i = 1; i <= EMRMetasCount; i++)\n        {\n           if(EMRMetas[i].owner == _owner)\n             EMRMetas[i].allowedRole = 3;\n        }\n\n        // trigger updateMeta　Event\n        updateMetaEvent(_owner);\n    }\n\n    /*deleteEMRMetas string _timestamp can be get automatically later\n    function deleteEMRMetas (uint _owner, string _timestamp) private{\n\n        //check role to be allowed to deleteEMRMetas\n        require(roles[msg.sender] == 1); //only a doctor can deleteEMRMetas now\n\n        /********************************************************************************/\n        /*******Here we should consider to delete \"medical data\" to cloud (dejima)*******/\n        /********************************************************************************/\n\n        /*\n          If a metadata is deleted, the owner ID is assigned to 0\n          (if this, later will need to fresh EMRMetas to remove unuseful EMRMetas)\n\n\n        //search EMRMetas using _owner\n\n        //assign 0 to this _owner field\n\n        //decrement the EMRMetasCount by 1\n\n    }*/\n}\n",
  "sourcePath": "/Users/lichunmiao/Desktop/EMRDejima/contracts/queryMeta.sol",
  "compiler": {
    "name": "solc",
    "version": "0.4.24+commit.e67f0147.Emscripten.clang"
  },
  "schemaVersion": "2.0.1",
  "updatedAt": "2018-11-19T10:44:08.040Z"
}