{
  "contractName": "queryMeta",
  "abi": [
    {
      "constant": true,
      "inputs": [
        {
          "name": "",
          "type": "uint256"
        }
      ],
      "name": "roles",
      "outputs": [
        {
          "name": "name",
          "type": "string"
        },
        {
          "name": "id",
          "type": "uint256"
        },
        {
          "name": "roleNum",
          "type": "uint256"
        }
      ],
      "payable": false,
      "stateMutability": "view",
      "type": "function"
    },
    {
      "constant": true,
      "inputs": [
        {
          "name": "",
          "type": "uint256"
        }
      ],
      "name": "EMRMetas",
      "outputs": [
        {
          "name": "owner",
          "type": "uint256"
        },
        {
          "name": "timestamp",
          "type": "string"
        },
        {
          "name": "allowedRole",
          "type": "uint256"
        }
      ],
      "payable": false,
      "stateMutability": "view",
      "type": "function"
    },
    {
      "inputs": [],
      "payable": false,
      "stateMutability": "nonpayable",
      "type": "constructor"
    }
  ],
  "bytecode": "0x608060405234801561001057600080fd5b506060604051908101604052806040805190810160405280600581526020017f416c696365000000000000000000000000000000000000000000000000000000815250815260200161037881526020016001815250600160008081526020019081526020016000206000820151816000019080519060200190610094929190610280565b5060208201518160010155604082015181600201559050506060604051908101604052806040805190810160405280600381526020017f426f62000000000000000000000000000000000000000000000000000000000081525081526020016057815260200160048152506001600060018152602001908152602001600020600082015181600001908051906020019061012f929190610280565b506020820151816001015560408201518160020155905050606060405190810160405280607b81526020016040805190810160405280600881526020017f3230313831313138000000000000000000000000000000000000000000000000815250815260200160018152506000808081526020019081526020016000206000820151816000015560208201518160010190805190602001906101d2929190610280565b50604082015181600201559050506060604051908101604052806101c881526020016040805190810160405280600881526020017f3230313831313139000000000000000000000000000000000000000000000000815250815260200160048152506000806001815260200190815260200160002060008201518160000155602082015181600101908051906020019061026d929190610280565b5060408201518160020155905050610325565b828054600181600116156101000203166002900490600052602060002090601f016020900481019282601f106102c157805160ff19168380011785556102ef565b828001600101855582156102ef579182015b828111156102ee5782518255916020019190600101906102d3565b5b5090506102fc9190610300565b5090565b61032291905b8082111561031e576000816000905550600101610306565b5090565b90565b610369806103346000396000f30060806040526004361061004c576000357c0100000000000000000000000000000000000000000000000000000000900463ffffffff168063bfda4a4914610051578063feb6895914610105575b600080fd5b34801561005d57600080fd5b5061007c600480360381019080803590602001909291905050506101b9565b6040518080602001848152602001838152602001828103825285818151815260200191508051906020019080838360005b838110156100c85780820151818401526020810190506100ad565b50505050905090810190601f1680156100f55780820380516001836020036101000a031916815260200191505b5094505050505060405180910390f35b34801561011157600080fd5b506101306004803603810190808035906020019092919050505061027b565b6040518084815260200180602001838152602001828103825284818151815260200191508051906020019080838360005b8381101561017c578082015181840152602081019050610161565b50505050905090810190601f1680156101a95780820380516001836020036101000a031916815260200191505b5094505050505060405180910390f35b6001602052806000526040600020600091509050806000018054600181600116156101000203166002900480601f0160208091040260200160405190810160405280929190818152602001828054600181600116156101000203166002900480156102655780601f1061023a57610100808354040283529160200191610265565b820191906000526020600020905b81548152906001019060200180831161024857829003601f168201915b5050505050908060010154908060020154905083565b6000602052806000526040600020600091509050806000015490806001018054600181600116156101000203166002900480601f01602080910402602001604051908101604052809291908181526020018280546001816001161561010002031660029004801561032d5780601f106103025761010080835404028352916020019161032d565b820191906000526020600020905b81548152906001019060200180831161031057829003601f168201915b50505050509080600201549050835600a165627a7a7230582069601f937ddb28c4f617ee90d7ae0965d514339f0db3eff2f04142412df771b90029",
  "source": "pragma solidity  ^0.4.24;\n\ncontract queryMeta {\n\n    //Model metadata of EMR\n    struct EMRMeta {\n        uint owner; //patient ID; public will have getter and setter function automatically\n        string timestamp;\n        uint allowedRole;\n    }\n\n    //Store EMRMetas\n    mapping (uint => EMRMeta) public EMRMetas;\n\n    struct Role{\n      string name; //name of doctor or patient\n      uint id;\n      uint roleNum; /*\n                    consider doctor only for the time being:\n                      1 -> doctor\n                      2 -> analyzer\n                      3 -> insurance\n                      4->  patient\n                        */\n    }\n\n    //Store　roles\n    mapping (uint => Role) public roles;\n\n    /*\n     * Contructor, will run whenever we deploy the contract to the blockchain\n     * (initialized contract upon migration)\n     * same name as the contract\n    */\n    function queryMeta () public {\n           //先直接初始化一些roles\n           roles[0] = Role(\"Alice\", 888, 1); //doctor\n           roles[1] = Role(\"Bob\", 87, 4); //a patient\n\n           //先直接初始化一些EMRMetas\n           EMRMetas[0] = EMRMeta(123, \"20181118\", 1);\n           EMRMetas[1] = EMRMeta(456, \"20181119\", 4);\n    }\n\n    //Read EMRMetas\n\n}\n",
  "sourcePath": "/Users/lichunmiao/Desktop/研究/EMRDejima/contracts/queryMeta.sol",
  "compiler": {
    "name": "solc",
    "version": "0.4.24+commit.e67f0147.Emscripten.clang"
  },
  "schemaVersion": "2.0.1",
  "updatedAt": "2018-11-18T11:30:14.974Z"
}